{
  "address": "0xd2983525E903Ef198d5dD0777712EB66680463bc",
  "abi": [
    {
      "inputs": [
        {
          "internalType": "address",
          "name": "_fundsOwner",
          "type": "address"
        },
        {
          "internalType": "address",
          "name": "_newOwner",
          "type": "address"
        },
        {
          "internalType": "address",
          "name": "_gelatoMakerJob",
          "type": "address"
        }
      ],
      "stateMutability": "nonpayable",
      "type": "constructor"
    },
    {
      "anonymous": false,
      "inputs": [
        {
          "indexed": true,
          "internalType": "address",
          "name": "previousOwner",
          "type": "address"
        },
        {
          "indexed": true,
          "internalType": "address",
          "name": "newOwner",
          "type": "address"
        }
      ],
      "name": "OwnershipTransferred",
      "type": "event"
    },
    {
      "inputs": [],
      "name": "AUTOMATE",
      "outputs": [
        {
          "internalType": "contract IAutomate",
          "name": "",
          "type": "address"
        }
      ],
      "stateMutability": "view",
      "type": "function"
    },
    {
      "inputs": [],
      "name": "DAI",
      "outputs": [
        {
          "internalType": "contract IERC20",
          "name": "",
          "type": "address"
        }
      ],
      "stateMutability": "view",
      "type": "function"
    },
    {
      "inputs": [],
      "name": "PAYMENT_ADAPTER",
      "outputs": [
        {
          "internalType": "contract INetworkPaymentAdapter",
          "name": "",
          "type": "address"
        }
      ],
      "stateMutability": "view",
      "type": "function"
    },
    {
      "inputs": [],
      "name": "ROUTER",
      "outputs": [
        {
          "internalType": "contract IRouter",
          "name": "",
          "type": "address"
        }
      ],
      "stateMutability": "view",
      "type": "function"
    },
    {
      "inputs": [],
      "name": "canTopUp",
      "outputs": [
        {
          "internalType": "bool",
          "name": "canTopUp",
          "type": "bool"
        },
        {
          "internalType": "bytes",
          "name": "payload",
          "type": "bytes"
        }
      ],
      "stateMutability": "view",
      "type": "function"
    },
    {
      "inputs": [],
      "name": "fundsOwner",
      "outputs": [
        {
          "internalType": "address",
          "name": "",
          "type": "address"
        }
      ],
      "stateMutability": "view",
      "type": "function"
    },
    {
      "inputs": [],
      "name": "gelatoMakerJob",
      "outputs": [
        {
          "internalType": "address",
          "name": "",
          "type": "address"
        }
      ],
      "stateMutability": "view",
      "type": "function"
    },
    {
      "inputs": [],
      "name": "getBufferSize",
      "outputs": [
        {
          "internalType": "uint256",
          "name": "",
          "type": "uint256"
        }
      ],
      "stateMutability": "view",
      "type": "function"
    },
    {
      "inputs": [],
      "name": "owner",
      "outputs": [
        {
          "internalType": "address",
          "name": "",
          "type": "address"
        }
      ],
      "stateMutability": "view",
      "type": "function"
    },
    {
      "inputs": [],
      "name": "payDoJobs",
      "outputs": [],
      "stateMutability": "nonpayable",
      "type": "function"
    },
    {
      "inputs": [],
      "name": "renounceOwnership",
      "outputs": [],
      "stateMutability": "nonpayable",
      "type": "function"
    },
    {
      "inputs": [
        {
          "internalType": "address",
          "name": "_newFundsOwner",
          "type": "address"
        }
      ],
      "name": "setFundsOwner",
      "outputs": [],
      "stateMutability": "nonpayable",
      "type": "function"
    },
    {
      "inputs": [
        {
          "internalType": "address",
          "name": "_newGelatoMakerJob",
          "type": "address"
        }
      ],
      "name": "setGelatoMakerJob",
      "outputs": [],
      "stateMutability": "nonpayable",
      "type": "function"
    },
    {
      "inputs": [],
      "name": "topUp",
      "outputs": [],
      "stateMutability": "nonpayable",
      "type": "function"
    },
    {
      "inputs": [],
      "name": "transferDaiToFundsOwner",
      "outputs": [],
      "stateMutability": "nonpayable",
      "type": "function"
    },
    {
      "inputs": [
        {
          "internalType": "address",
          "name": "newOwner",
          "type": "address"
        }
      ],
      "name": "transferOwnership",
      "outputs": [],
      "stateMutability": "nonpayable",
      "type": "function"
    }
  ],
  "transactionHash": "0x4c8b49b1e9cd58533a9cb3a5edb3eac8c912650663da49204413a66a5926e119",
  "args": [
    "0xf39Fd6e51aad88F6F4ce6aB8827279cffFb92266",
    "0xf39Fd6e51aad88F6F4ce6aB8827279cffFb92266",
    "0xe8c3F27D20472e4f3C546A3f73C04B54DD72871d"
  ],
  "numDeployments": 1,
  "solcInputHash": "bb8911f54773df06e1310925ec664cf2",
  "bytecode": "0x60a06040523480156200001157600080fd5b5060405162001b4038038062001b408339818101604052810190620000379190620004e0565b620000576200004b6200025960201b60201c565b6200026160201b60201c565b82600160006101000a81548173ffffffffffffffffffffffffffffffffffffffff021916908373ffffffffffffffffffffffffffffffffffffffff16021790555080600260006101000a81548173ffffffffffffffffffffffffffffffffffffffff021916908373ffffffffffffffffffffffffffffffffffffffff1602179055506000732a6c106ae13b558bb9e2ec64bd2f1f7beff3a5e073ffffffffffffffffffffffffffffffffffffffff1663573ea5756040518163ffffffff1660e01b8152600401602060405180830381865afa1580156200013b573d6000803e3d6000fd5b505050506040513d601f19601f8201168201806040525081019062000161919062000581565b90508073ffffffffffffffffffffffffffffffffffffffff1663c415b95c6040518163ffffffff1660e01b8152600401602060405180830381865afa158015620001af573d6000803e3d6000fd5b505050506040513d601f19601f82011682018060405250810190620001d59190620005b3565b73ffffffffffffffffffffffffffffffffffffffff1660808173ffffffffffffffffffffffffffffffffffffffff1681525050600073ffffffffffffffffffffffffffffffffffffffff168373ffffffffffffffffffffffffffffffffffffffff16146200024f576200024e836200032560201b60201c565b5b5050505062000700565b600033905090565b60008060009054906101000a900473ffffffffffffffffffffffffffffffffffffffff169050816000806101000a81548173ffffffffffffffffffffffffffffffffffffffff021916908373ffffffffffffffffffffffffffffffffffffffff1602179055508173ffffffffffffffffffffffffffffffffffffffff168173ffffffffffffffffffffffffffffffffffffffff167f8be0079c531659141344cd1fd0a4f28419497f9722a3daafe3b4186f6b6457e060405160405180910390a35050565b62000335620003bc60201b60201c565b600073ffffffffffffffffffffffffffffffffffffffff168173ffffffffffffffffffffffffffffffffffffffff161415620003a8576040517f08c379a00000000000000000000000000000000000000000000000000000000081526004016200039f906200066c565b60405180910390fd5b620003b9816200026160201b60201c565b50565b620003cc6200025960201b60201c565b73ffffffffffffffffffffffffffffffffffffffff16620003f26200044d60201b60201c565b73ffffffffffffffffffffffffffffffffffffffff16146200044b576040517f08c379a00000000000000000000000000000000000000000000000000000000081526004016200044290620006de565b60405180910390fd5b565b60008060009054906101000a900473ffffffffffffffffffffffffffffffffffffffff16905090565b600080fd5b600073ffffffffffffffffffffffffffffffffffffffff82169050919050565b6000620004a8826200047b565b9050919050565b620004ba816200049b565b8114620004c657600080fd5b50565b600081519050620004da81620004af565b92915050565b600080600060608486031215620004fc57620004fb62000476565b5b60006200050c86828701620004c9565b93505060206200051f86828701620004c9565b92505060406200053286828701620004c9565b9150509250925092565b600062000549826200047b565b9050919050565b6200055b816200053c565b81146200056757600080fd5b50565b6000815190506200057b8162000550565b92915050565b6000602082840312156200059a576200059962000476565b5b6000620005aa848285016200056a565b91505092915050565b600060208284031215620005cc57620005cb62000476565b5b6000620005dc84828501620004c9565b91505092915050565b600082825260208201905092915050565b7f4f776e61626c653a206e6577206f776e657220697320746865207a65726f206160008201527f6464726573730000000000000000000000000000000000000000000000000000602082015250565b600062000654602683620005e5565b91506200066182620005f6565b604082019050919050565b60006020820190508181036000830152620006878162000645565b9050919050565b7f4f776e61626c653a2063616c6c6572206973206e6f7420746865206f776e6572600082015250565b6000620006c6602083620005e5565b9150620006d3826200068e565b602082019050919050565b60006020820190508181036000830152620006f981620006b7565b9050919050565b6080516114246200071c6000396000610b2101526114246000f3fe608060405234801561001057600080fd5b50600436106101005760003560e01c80638da5cb5b11610097578063dc29f1de11610066578063dc29f1de1461022e578063e0bab4c414610238578063e7a10fae14610256578063f2fde38b1461027457610100565b80638da5cb5b146101ba578063a41e7098146101d8578063aec1c327146101f6578063c6765fc91461021257610100565b8063715018a6116100d3578063715018a614610155578063761c29401461015f5780637cba7b901461017e5780638628d9b61461019c57610100565b8063248580271461010557806332fe7b261461010f57806346ee3c591461012d5780636aca3ad61461014b575b600080fd5b61010d610290565b005b6101176103e2565b6040516101249190610d38565b60405180910390f35b6101356103fa565b6040516101429190610d74565b60405180910390f35b610153610420565b005b61015d6104c9565b005b6101676104dd565b604051610175929190610e43565b60405180910390f35b610186610618565b6040516101939190610e94565b60405180910390f35b6101a4610630565b6040516101b19190610ec8565b60405180910390f35b6101c26106c5565b6040516101cf9190610d74565b60405180910390f35b6101e06106ee565b6040516101ed9190610d74565b60405180910390f35b610210600480360381019061020b9190610f14565b610714565b005b61022c60048036038101906102279190610f14565b6107f1565b005b6102366108ce565b005b610240610956565b60405161024d9190610f62565b60405180910390f35b61025e61096e565b60405161026b9190610f9e565b60405180910390f35b61028e60048036038101906102899190610f14565b610986565b005b610298610a0a565b6000736b175474e89094c44da98b954eedeac495271d0f73ffffffffffffffffffffffffffffffffffffffff166370a08231306040518263ffffffff1660e01b81526004016102e79190610d74565b602060405180830381865afa158015610304573d6000803e3d6000fd5b505050506040513d601f19601f820116820180604052508101906103289190610fe5565b9050736b175474e89094c44da98b954eedeac495271d0f73ffffffffffffffffffffffffffffffffffffffff1663a9059cbb600160009054906101000a900473ffffffffffffffffffffffffffffffffffffffff16836040518363ffffffff1660e01b815260040161039b929190611012565b6020604051808303816000875af11580156103ba573d6000803e3d6000fd5b505050506040513d601f19601f820116820180604052508101906103de9190611067565b5050565b73eff92a263d31888d860bd50809a8d171709b7b1c81565b600160009054906101000a900473ffffffffffffffffffffffffffffffffffffffff1681565b600260009054906101000a900473ffffffffffffffffffffffffffffffffffffffff1673ffffffffffffffffffffffffffffffffffffffff163373ffffffffffffffffffffffffffffffffffffffff16146104b0576040517f08c379a00000000000000000000000000000000000000000000000000000000081526004016104a7906110f1565b60405180910390fd5b60006104ba610a88565b5090506104c681610b1d565b50565b6104d1610a0a565b6104db6000610bed565b565b60006060730b5a34d084b6a5ae4361de033d1e6255623b41ed73ffffffffffffffffffffffffffffffffffffffff1663761c29406040518163ffffffff1660e01b8152600401602060405180830381865afa158015610540573d6000803e3d6000fd5b505050506040513d601f19601f820116820180604052508101906105649190611067565b9150816105a6576040518060400160405280600981526020017f2163616e546f7055700000000000000000000000000000000000000000000000815250610612565b63dc29f1de60e01b604051602401604051602081830303815290604052907bffffffffffffffffffffffffffffffffffffffffffffffffffffffff19166020820180517bffffffffffffffffffffffffffffffffffffffffffffffffffffffff83818316178352505050505b90509091565b730b5a34d084b6a5ae4361de033d1e6255623b41ed81565b6000736b175474e89094c44da98b954eedeac495271d0f73ffffffffffffffffffffffffffffffffffffffff166370a08231306040518263ffffffff1660e01b815260040161067f9190610d74565b602060405180830381865afa15801561069c573d6000803e3d6000fd5b505050506040513d601f19601f820116820180604052508101906106c09190610fe5565b905090565b60008060009054906101000a900473ffffffffffffffffffffffffffffffffffffffff16905090565b600260009054906101000a900473ffffffffffffffffffffffffffffffffffffffff1681565b61071c610a0a565b8073ffffffffffffffffffffffffffffffffffffffff16600160009054906101000a900473ffffffffffffffffffffffffffffffffffffffff1673ffffffffffffffffffffffffffffffffffffffff1614156107ad576040517f08c379a00000000000000000000000000000000000000000000000000000000081526004016107a49061115d565b60405180910390fd5b80600160006101000a81548173ffffffffffffffffffffffffffffffffffffffff021916908373ffffffffffffffffffffffffffffffffffffffff16021790555050565b6107f9610a0a565b8073ffffffffffffffffffffffffffffffffffffffff16600260009054906101000a900473ffffffffffffffffffffffffffffffffffffffff1673ffffffffffffffffffffffffffffffffffffffff16141561088a576040517f08c379a0000000000000000000000000000000000000000000000000000000008152600401610881906111c9565b60405180910390fd5b80600260006101000a81548173ffffffffffffffffffffffffffffffffffffffff021916908373ffffffffffffffffffffffffffffffffffffffff16021790555050565b730b5a34d084b6a5ae4361de033d1e6255623b41ed73ffffffffffffffffffffffffffffffffffffffff1663dc29f1de6040518163ffffffff1660e01b81526004016020604051808303816000875af115801561092f573d6000803e3d6000fd5b505050506040513d601f19601f820116820180604052508101906109539190610fe5565b50565b736b175474e89094c44da98b954eedeac495271d0f81565b732a6c106ae13b558bb9e2ec64bd2f1f7beff3a5e081565b61098e610a0a565b600073ffffffffffffffffffffffffffffffffffffffff168173ffffffffffffffffffffffffffffffffffffffff1614156109fe576040517f08c379a00000000000000000000000000000000000000000000000000000000081526004016109f59061125b565b60405180910390fd5b610a0781610bed565b50565b610a12610cb1565b73ffffffffffffffffffffffffffffffffffffffff16610a306106c5565b73ffffffffffffffffffffffffffffffffffffffff1614610a86576040517f08c379a0000000000000000000000000000000000000000000000000000000008152600401610a7d906112c7565b60405180910390fd5b565b600080732a6c106ae13b558bb9e2ec64bd2f1f7beff3a5e073ffffffffffffffffffffffffffffffffffffffff1663b810c6366040518163ffffffff1660e01b81526004016040805180830381865afa158015610ae9573d6000803e3d6000fd5b505050506040513d601f19601f82011682018060405250810190610b0d91906112fc565b8092508193505050606491509091565b60007f000000000000000000000000000000000000000000000000000000000000000073ffffffffffffffffffffffffffffffffffffffff1682604051610b639061136d565b60006040518083038185875af1925050503d8060008114610ba0576040519150601f19603f3d011682016040523d82523d6000602084013e610ba5565b606091505b5050905080610be9576040517f08c379a0000000000000000000000000000000000000000000000000000000008152600401610be0906113ce565b60405180910390fd5b5050565b60008060009054906101000a900473ffffffffffffffffffffffffffffffffffffffff169050816000806101000a81548173ffffffffffffffffffffffffffffffffffffffff021916908373ffffffffffffffffffffffffffffffffffffffff1602179055508173ffffffffffffffffffffffffffffffffffffffff168173ffffffffffffffffffffffffffffffffffffffff167f8be0079c531659141344cd1fd0a4f28419497f9722a3daafe3b4186f6b6457e060405160405180910390a35050565b600033905090565b600073ffffffffffffffffffffffffffffffffffffffff82169050919050565b6000819050919050565b6000610cfe610cf9610cf484610cb9565b610cd9565b610cb9565b9050919050565b6000610d1082610ce3565b9050919050565b6000610d2282610d05565b9050919050565b610d3281610d17565b82525050565b6000602082019050610d4d6000830184610d29565b92915050565b6000610d5e82610cb9565b9050919050565b610d6e81610d53565b82525050565b6000602082019050610d896000830184610d65565b92915050565b60008115159050919050565b610da481610d8f565b82525050565b600081519050919050565b600082825260208201905092915050565b60005b83811015610de4578082015181840152602081019050610dc9565b83811115610df3576000848401525b50505050565b6000601f19601f8301169050919050565b6000610e1582610daa565b610e1f8185610db5565b9350610e2f818560208601610dc6565b610e3881610df9565b840191505092915050565b6000604082019050610e586000830185610d9b565b8181036020830152610e6a8184610e0a565b90509392505050565b6000610e7e82610d05565b9050919050565b610e8e81610e73565b82525050565b6000602082019050610ea96000830184610e85565b92915050565b6000819050919050565b610ec281610eaf565b82525050565b6000602082019050610edd6000830184610eb9565b92915050565b600080fd5b610ef181610d53565b8114610efc57600080fd5b50565b600081359050610f0e81610ee8565b92915050565b600060208284031215610f2a57610f29610ee3565b5b6000610f3884828501610eff565b91505092915050565b6000610f4c82610d05565b9050919050565b610f5c81610f41565b82525050565b6000602082019050610f776000830184610f53565b92915050565b6000610f8882610d05565b9050919050565b610f9881610f7d565b82525050565b6000602082019050610fb36000830184610f8f565b92915050565b610fc281610eaf565b8114610fcd57600080fd5b50565b600081519050610fdf81610fb9565b92915050565b600060208284031215610ffb57610ffa610ee3565b5b600061100984828501610fd0565b91505092915050565b60006040820190506110276000830185610d65565b6110346020830184610eb9565b9392505050565b61104481610d8f565b811461104f57600080fd5b50565b6000815190506110618161103b565b92915050565b60006020828403121561107d5761107c610ee3565b5b600061108b84828501611052565b91505092915050565b600082825260208201905092915050565b7f6e6f742047656c61746f4d616b65724a6f620000000000000000000000000000600082015250565b60006110db601283611094565b91506110e6826110a5565b602082019050919050565b6000602082019050818103600083015261110a816110ce565b9050919050565b7f616c72656164792066756e64734f776e65720000000000000000000000000000600082015250565b6000611147601283611094565b915061115282611111565b602082019050919050565b600060208201905081810360008301526111768161113a565b9050919050565b7f616c72656164792047656c61746f4d616b65724a6f6200000000000000000000600082015250565b60006111b3601683611094565b91506111be8261117d565b602082019050919050565b600060208201905081810360008301526111e2816111a6565b9050919050565b7f4f776e61626c653a206e6577206f776e657220697320746865207a65726f206160008201527f6464726573730000000000000000000000000000000000000000000000000000602082015250565b6000611245602683611094565b9150611250826111e9565b604082019050919050565b6000602082019050818103600083015261127481611238565b9050919050565b7f4f776e61626c653a2063616c6c6572206973206e6f7420746865206f776e6572600082015250565b60006112b1602083611094565b91506112bc8261127b565b602082019050919050565b600060208201905081810360008301526112e0816112a4565b9050919050565b6000815190506112f681610ee8565b92915050565b6000806040838503121561131357611312610ee3565b5b600061132185828601610fd0565b9250506020611332858286016112e7565b9150509250929050565b600081905092915050565b50565b600061135760008361133c565b915061136282611347565b600082019050919050565b60006113788261134a565b9150819050919050565b7f5f7472616e736665723a20455448207472616e73666572206661696c65640000600082015250565b60006113b8601e83611094565b91506113c382611382565b602082019050919050565b600060208201905081810360008301526113e7816113ab565b905091905056fea26469706673582212206dccb2c3f80ed79f9444583e2bc88e8d10d0961287d53b3777f45878574765ec64736f6c634300080b0033",
  "devdoc": {
    "kind": "dev",
    "methods": {
      "getBufferSize()": {
        "details": "This should return an estimate of the total value of the buffer in DAI. Keeper Networks should convert non-DAI assets to DAI value via an oracle. Ex) If the network bulk trades DAI for ETH then the value of the ETH sitting in the treasury should count towards this buffer size."
      },
      "owner()": {
        "details": "Returns the address of the current owner."
      },
      "renounceOwnership()": {
        "details": "Leaves the contract without owner. It will not be possible to call `onlyOwner` functions. Can only be called by the current owner. NOTE: Renouncing ownership will leave the contract without an owner, thereby disabling any functionality that is only available to the owner."
      },
      "transferOwnership(address)": {
        "details": "Transfers ownership of the contract to a new account (`newOwner`). Can only be called by the current owner."
      }
    },
    "version": 1
  },
  "userdoc": {
    "kind": "user",
    "methods": {},
    "version": 1
  },
  "storageLayout": {
    "storage": [
      {
        "astId": 7,
        "contract": "contracts/ MakerTopUp.sol:MakerTopUp",
        "label": "_owner",
        "offset": 0,
        "slot": "0",
        "type": "t_address"
      },
      {
        "astId": 260,
        "contract": "contracts/ MakerTopUp.sol:MakerTopUp",
        "label": "fundsOwner",
        "offset": 0,
        "slot": "1",
        "type": "t_address"
      },
      {
        "astId": 262,
        "contract": "contracts/ MakerTopUp.sol:MakerTopUp",
        "label": "gelatoMakerJob",
        "offset": 0,
        "slot": "2",
        "type": "t_address"
      }
    ],
    "types": {
      "t_address": {
        "encoding": "inplace",
        "label": "address",
        "numberOfBytes": "20"
      }
    }
  }
}