{
  "address": "0x6C71E072CA9EDD35438c5e8d2a8836F42345b31d",
  "abi": [
    {
      "inputs": [
        {
          "internalType": "address",
          "name": "_pokeMe",
          "type": "address"
        }
      ],
      "stateMutability": "nonpayable",
      "type": "constructor"
    },
    {
      "inputs": [
        {
          "internalType": "address",
          "name": "_sequencer",
          "type": "address"
        },
        {
          "internalType": "bytes32",
          "name": "_network",
          "type": "bytes32"
        },
        {
          "internalType": "uint256",
          "name": "_startIndex",
          "type": "uint256"
        },
        {
          "internalType": "uint256",
          "name": "_endIndex",
          "type": "uint256"
        }
      ],
      "name": "checker",
      "outputs": [
        {
          "internalType": "bool",
          "name": "",
          "type": "bool"
        },
        {
          "internalType": "bytes",
          "name": "",
          "type": "bytes"
        }
      ],
      "stateMutability": "nonpayable",
      "type": "function"
    },
    {
      "inputs": [
        {
          "internalType": "address[]",
          "name": "_tos",
          "type": "address[]"
        },
        {
          "internalType": "bytes[]",
          "name": "_datas",
          "type": "bytes[]"
        }
      ],
      "name": "doJobs",
      "outputs": [],
      "stateMutability": "nonpayable",
      "type": "function"
    },
    {
      "inputs": [],
      "name": "pokeMe",
      "outputs": [
        {
          "internalType": "address",
          "name": "",
          "type": "address"
        }
      ],
      "stateMutability": "view",
      "type": "function"
    }
  ],
  "transactionHash": "0x528e47d274df6696ed521bbc5352e15ec3843f9ba15171520523aa9c1b08903b",
  "args": [
    "0x93719de6A0ea910c37a4C3e3CA24b88D386fb940"
  ],
  "numDeployments": 1,
  "solcInputHash": "09556027c79465b6b3f81948efdff2f5",
  "bytecode": "0x60a06040523480156200001157600080fd5b5060405162001c9d38038062001c9d8339818101604052810190620000379190620000dc565b8073ffffffffffffffffffffffffffffffffffffffff1660808173ffffffffffffffffffffffffffffffffffffffff1681525050506200010e565b600080fd5b600073ffffffffffffffffffffffffffffffffffffffff82169050919050565b6000620000a48262000077565b9050919050565b620000b68162000097565b8114620000c257600080fd5b50565b600081519050620000d681620000ab565b92915050565b600060208284031215620000f557620000f462000072565b5b60006200010584828501620000c5565b91505092915050565b608051611b6d620001306000396000818160b301526107950152611b6d6000f3fe608060405234801561001057600080fd5b50600436106100415760003560e01c80630546660e1461004657806328d7b1d314610062578063c84eee0d14610093575b600080fd5b610060600480360381019061005b9190610cdd565b6100b1565b005b61007c60048036038101906100779190610e28565b610247565b60405161008a929190610f43565b60405180910390f35b61009b610793565b6040516100a89190610f82565b60405180910390f35b7f000000000000000000000000000000000000000000000000000000000000000073ffffffffffffffffffffffffffffffffffffffff163373ffffffffffffffffffffffffffffffffffffffff161461013f576040517f08c379a000000000000000000000000000000000000000000000000000000000815260040161013690610ffa565b60405180910390fd5b818190508484905014610187576040517f08c379a000000000000000000000000000000000000000000000000000000000815260040161017e90611066565b60405180910390fd5b60005b848490508110156102405761022d8585838181106101ab576101aa611086565b5b90506020020160208101906101c091906110b5565b8484848181106101d3576101d2611086565b5b90506020028101906101e591906110f1565b8080601f016020809104026020016040519081016040528093929190818152602001838380828437600081840152601f19601f820116905080830192505050505050506107b7565b808061023890611183565b91505061018a565b5050505050565b60006060600086905060008173ffffffffffffffffffffffffffffffffffffffff16639212051c6040518163ffffffff1660e01b8152600401602060405180830381865afa15801561029d573d6000803e3d6000fd5b505050506040513d601f19601f820116820180604052508101906102c191906111e1565b9050600081141561030f5760006040518060400160405280601e81526020017f47656c61746f4d616b65724a6f623a204e6f206a6f6273206c6973746564000081525093509350505061078a565b8086106103ab57600061032d600183610328919061120e565b61087a565b60405160200161033d91906112f0565b604051602081830303815290604052905060006103598861087a565b6040516020016103699190611338565b60405160208183030381529060405290506000828260405160200161038f92919061135e565b604051602081830303815290604052955095505050505061078a565b60008186116103ba57856103bc565b815b905060008973ffffffffffffffffffffffffffffffffffffffff1663a613ff9c8a8a856040518463ffffffff1660e01b81526004016103fd939291906113a0565b6000604051808303816000875af115801561041c573d6000803e3d6000fd5b505050506040513d6000823e3d601f19601f8201168201806040525081019061044591906116a4565b90506000805b825181101561049a5782818151811061046757610466611086565b5b6020026020010151602001511561048757818061048390611183565b9250505b808061049290611183565b91505061044b565b5060008114156104ea5760006040518060400160405280602081526020017f47656c61746f4d616b65724a6f623a204e6f20776f726b61626c65206a6f627381525096509650505050505061078a565b60008167ffffffffffffffff811115610506576105056113d7565b5b6040519080825280602002602001820160405280156105345781602001602082028036833780820191505090505b50905060008267ffffffffffffffff811115610553576105526113d7565b5b60405190808252806020026020018201604052801561058657816020015b60608152602001906001900390816105715790505b5090506000805b85518110156106fc578581815181106105a9576105a8611086565b5b602002602001015160200151156106e9578581815181106105cd576105cc611086565b5b6020026020010151600001518483815181106105ec576105eb611086565b5b602002602001019073ffffffffffffffffffffffffffffffffffffffff16908173ffffffffffffffffffffffffffffffffffffffff1681525050631d2ab00060e01b8e87838151811061064257610641611086565b5b60200260200101516040015160405160240161065f9291906116ed565b604051602081830303815290604052907bffffffffffffffffffffffffffffffffffffffffffffffffffffffff19166020820180517bffffffffffffffffffffffffffffffffffffffffffffffffffffffff83818316178352505050508383815181106106cf576106ce611086565b5b602002602001018190525081806106e590611183565b9250505b80806106f490611183565b91505061058d565b506000630546660e60e01b848460405160240161071a9291906118e7565b604051602081830303815290604052907bffffffffffffffffffffffffffffffffffffffffffffffffffffffff19166020820180517bffffffffffffffffffffffffffffffffffffffffffffffffffffffff838183161783525050505090506001819a509a505050505050505050505b94509492505050565b7f000000000000000000000000000000000000000000000000000000000000000081565b6000808373ffffffffffffffffffffffffffffffffffffffff16836040516107df919061191e565b6000604051808303816000865af19150503d806000811461081c576040519150601f19603f3d011682016040523d82523d6000602084013e610821565b606091505b509150915081610874576108736040518060400160405280601081526020017f47656c61746f4d616b65724a6f623a20000000000000000000000000000000008152508261095290919063ffffffff16565b5b50505050565b60606000600161088984610abb565b01905060008167ffffffffffffffff8111156108a8576108a76113d7565b5b6040519080825280601f01601f1916602001820160405280156108da5781602001600182028036833780820191505090505b509050600082602001820190505b600115610947578080600190039150507f3031323334353637383961626364656600000000000000000000000000000000600a86061a8153600a858161093157610930611935565b5b049450600085141561094257610947565b6108e8565b819350505050919050565b6004602083516109629190611964565b1415610a5f576000826020015190506308c379a060e01b817bffffffffffffffffffffffffffffffffffffffffffffffffffffffff19161415610a035760448301925081836040516020016109b89291906119dc565b6040516020818303038152906040526040517f08c379a00000000000000000000000000000000000000000000000000000000081526004016109fa9190611a39565b60405180910390fd5b81604051602001610a149190611aa7565b6040516020818303038152906040526040517f08c379a0000000000000000000000000000000000000000000000000000000008152600401610a569190611a39565b60405180910390fd5b80604051602001610a709190611b15565b6040516020818303038152906040526040517f08c379a0000000000000000000000000000000000000000000000000000000008152600401610ab29190611a39565b60405180910390fd5b600080600090507a184f03e93ff9f4daa797ed6e38ed64bf6a1f0100000000000000008310610b19577a184f03e93ff9f4daa797ed6e38ed64bf6a1f0100000000000000008381610b0f57610b0e611935565b5b0492506040810190505b6d04ee2d6d415b85acef81000000008310610b56576d04ee2d6d415b85acef81000000008381610b4c57610b4b611935565b5b0492506020810190505b662386f26fc100008310610b8557662386f26fc100008381610b7b57610b7a611935565b5b0492506010810190505b6305f5e1008310610bae576305f5e1008381610ba457610ba3611935565b5b0492506008810190505b6127108310610bd3576127108381610bc957610bc8611935565b5b0492506004810190505b60648310610bf65760648381610bec57610beb611935565b5b0492506002810190505b600a8310610c05576001810190505b80915050919050565b6000604051905090565b600080fd5b600080fd5b600080fd5b600080fd5b600080fd5b60008083601f840112610c4757610c46610c22565b5b8235905067ffffffffffffffff811115610c6457610c63610c27565b5b602083019150836020820283011115610c8057610c7f610c2c565b5b9250929050565b60008083601f840112610c9d57610c9c610c22565b5b8235905067ffffffffffffffff811115610cba57610cb9610c27565b5b602083019150836020820283011115610cd657610cd5610c2c565b5b9250929050565b60008060008060408587031215610cf757610cf6610c18565b5b600085013567ffffffffffffffff811115610d1557610d14610c1d565b5b610d2187828801610c31565b9450945050602085013567ffffffffffffffff811115610d4457610d43610c1d565b5b610d5087828801610c87565b925092505092959194509250565b600073ffffffffffffffffffffffffffffffffffffffff82169050919050565b6000610d8982610d5e565b9050919050565b610d9981610d7e565b8114610da457600080fd5b50565b600081359050610db681610d90565b92915050565b6000819050919050565b610dcf81610dbc565b8114610dda57600080fd5b50565b600081359050610dec81610dc6565b92915050565b6000819050919050565b610e0581610df2565b8114610e1057600080fd5b50565b600081359050610e2281610dfc565b92915050565b60008060008060808587031215610e4257610e41610c18565b5b6000610e5087828801610da7565b9450506020610e6187828801610ddd565b9350506040610e7287828801610e13565b9250506060610e8387828801610e13565b91505092959194509250565b60008115159050919050565b610ea481610e8f565b82525050565b600081519050919050565b600082825260208201905092915050565b60005b83811015610ee4578082015181840152602081019050610ec9565b83811115610ef3576000848401525b50505050565b6000601f19601f8301169050919050565b6000610f1582610eaa565b610f1f8185610eb5565b9350610f2f818560208601610ec6565b610f3881610ef9565b840191505092915050565b6000604082019050610f586000830185610e9b565b8181036020830152610f6a8184610f0a565b90509392505050565b610f7c81610d7e565b82525050565b6000602082019050610f976000830184610f73565b92915050565b600082825260208201905092915050565b7f47656c61746f4d616b65724a6f623a204f6e6c7920506f6b654d650000000000600082015250565b6000610fe4601b83610f9d565b9150610fef82610fae565b602082019050919050565b6000602082019050818103600083015261101381610fd7565b9050919050565b7f47656c61746f4d616b65724a6f623a204c656e677468206d69736d6174636800600082015250565b6000611050601f83610f9d565b915061105b8261101a565b602082019050919050565b6000602082019050818103600083015261107f81611043565b9050919050565b7f4e487b7100000000000000000000000000000000000000000000000000000000600052603260045260246000fd5b6000602082840312156110cb576110ca610c18565b5b60006110d984828501610da7565b91505092915050565b600080fd5b600080fd5b600080fd5b6000808335600160200384360303811261110e5761110d6110e2565b5b80840192508235915067ffffffffffffffff8211156111305761112f6110e7565b5b60208301925060018202360383131561114c5761114b6110ec565b5b509250929050565b7f4e487b7100000000000000000000000000000000000000000000000000000000600052601160045260246000fd5b600061118e82610df2565b91507fffffffffffffffffffffffffffffffffffffffffffffffffffffffffffffffff8214156111c1576111c0611154565b5b600182019050919050565b6000815190506111db81610dfc565b92915050565b6000602082840312156111f7576111f6610c18565b5b6000611205848285016111cc565b91505092915050565b600061121982610df2565b915061122483610df2565b92508282101561123757611236611154565b5b828203905092915050565b600081905092915050565b7f47656c61746f4d616b65724a6f623a204f6e6c79206a6f627320617661696c6160008201527f626c6520757020746f20696e6465782000000000000000000000000000000000602082015250565b60006112a9603083611242565b91506112b48261124d565b603082019050919050565b60006112ca82610eaa565b6112d48185611242565b93506112e4818560208601610ec6565b80840191505092915050565b60006112fb8261129c565b915061130782846112bf565b915081905092915050565b7f2c20696e707574746564207374617274496e6465782069732000000000000000815250565b600061134382611312565b60198201915061135382846112bf565b915081905092915050565b600061136a82856112bf565b915061137682846112bf565b91508190509392505050565b61138b81610dbc565b82525050565b61139a81610df2565b82525050565b60006060820190506113b56000830186611382565b6113c26020830185611391565b6113cf6040830184611391565b949350505050565b7f4e487b7100000000000000000000000000000000000000000000000000000000600052604160045260246000fd5b61140f82610ef9565b810181811067ffffffffffffffff8211171561142e5761142d6113d7565b5b80604052505050565b6000611441610c0e565b905061144d8282611406565b919050565b600067ffffffffffffffff82111561146d5761146c6113d7565b5b602082029050602081019050919050565b600080fd5b600080fd5b60008151905061149781610d90565b92915050565b6114a681610e8f565b81146114b157600080fd5b50565b6000815190506114c38161149d565b92915050565b600080fd5b600067ffffffffffffffff8211156114e9576114e86113d7565b5b6114f282610ef9565b9050602081019050919050565b600061151261150d846114ce565b611437565b90508281526020810184848401111561152e5761152d6114c9565b5b611539848285610ec6565b509392505050565b600082601f83011261155657611555610c22565b5b81516115668482602086016114ff565b91505092915050565b6000606082840312156115855761158461147e565b5b61158f6060611437565b9050600061159f84828501611488565b60008301525060206115b3848285016114b4565b602083015250604082015167ffffffffffffffff8111156115d7576115d6611483565b5b6115e384828501611541565b60408301525092915050565b60006116026115fd84611452565b611437565b9050808382526020820190506020840283018581111561162557611624610c2c565b5b835b8181101561166c57805167ffffffffffffffff81111561164a57611649610c22565b5b808601611657898261156f565b85526020850194505050602081019050611627565b5050509392505050565b600082601f83011261168b5761168a610c22565b5b815161169b8482602086016115ef565b91505092915050565b6000602082840312156116ba576116b9610c18565b5b600082015167ffffffffffffffff8111156116d8576116d7610c1d565b5b6116e484828501611676565b91505092915050565b60006040820190506117026000830185611382565b81810360208301526117148184610f0a565b90509392505050565b600081519050919050565b600082825260208201905092915050565b6000819050602082019050919050565b61175281610d7e565b82525050565b60006117648383611749565b60208301905092915050565b6000602082019050919050565b60006117888261171d565b6117928185611728565b935061179d83611739565b8060005b838110156117ce5781516117b58882611758565b97506117c083611770565b9250506001810190506117a1565b5085935050505092915050565b600081519050919050565b600082825260208201905092915050565b6000819050602082019050919050565b600082825260208201905092915050565b600061182382610eaa565b61182d8185611807565b935061183d818560208601610ec6565b61184681610ef9565b840191505092915050565b600061185d8383611818565b905092915050565b6000602082019050919050565b600061187d826117db565b61188781856117e6565b935083602082028501611899856117f7565b8060005b858110156118d557848403895281516118b68582611851565b94506118c183611865565b925060208a0199505060018101905061189d565b50829750879550505050505092915050565b60006040820190508181036000830152611901818561177d565b905081810360208301526119158184611872565b90509392505050565b600061192a82846112bf565b915081905092915050565b7f4e487b7100000000000000000000000000000000000000000000000000000000600052601260045260246000fd5b600061196f82610df2565b915061197a83610df2565b92508261198a57611989611935565b5b828206905092915050565b600081519050919050565b600081905092915050565b60006119b682611995565b6119c081856119a0565b93506119d0818560208601610ec6565b80840191505092915050565b60006119e882856119ab565b91506119f482846119ab565b91508190509392505050565b6000611a0b82611995565b611a158185610f9d565b9350611a25818560208601610ec6565b611a2e81610ef9565b840191505092915050565b60006020820190508181036000830152611a538184611a00565b905092915050565b7f4e6f4572726f7253656c6563746f720000000000000000000000000000000000600082015250565b6000611a91600f836119a0565b9150611a9c82611a5b565b600f82019050919050565b6000611ab382846119ab565b9150611abe82611a84565b915081905092915050565b7f556e657870656374656452657475726e64617461000000000000000000000000600082015250565b6000611aff6014836119a0565b9150611b0a82611ac9565b601482019050919050565b6000611b2182846119ab565b9150611b2c82611af2565b91508190509291505056fea264697066735822122006d20d277bf6298cee3785e838e682b4f74a316d287b1f436133b4b98aa8a0f964736f6c634300080b0033",
  "devdoc": {
    "kind": "dev",
    "methods": {},
    "version": 1
  },
  "userdoc": {
    "kind": "user",
    "methods": {},
    "version": 1
  },
  "storageLayout": {
    "storage": [],
    "types": null
  }
}